:020000040800F2
:1000000000000220E11C0008DD1C0008DB1C0008C9
:10001000DB1C0008DB1C0008DB1C000800000000E3
:10002000000000000000000000000000DD1C0008CF
:10003000DD1C000800000000DD1C0008A10700080E
:10004000DB1C0008DB1C0008DB1C0008DB1C0008B4
:10005000DB1C0008DB1C000895020008DB1C000804
:10006000DB1C0008DB1C0008DB1C0008DB1C000894
:10007000DB1C0008DB1C0008DB1C0008DB1C000884
:10008000DB1C0008DB1C0008DB1C0008DB1C000874
:10009000DB1C0008DB1C0008DB1C0008DB1C000864
:1000A000DB1C0008DB1C0008DB1C0008DB1C000854
:1000B000DB1C0008DB1C0008DB1C0008DB1C000844
:1000C000DB1C0008DB1C0008DB1C0008DB1C000834
:1000D000DB1C0008DB1C0008DB1C0008DB1C000824
:1000E000DB1C0008DB1C0008DB1C0008DB1C000814
:1000F000DB1C0008DB1C0008DB1C0008DB1C000804
:10010000DB1C0008DB1C0008DB1C0008DB1C0008F3
:10011000DB1C0008DB1C0008DB1C00087908000859
:10012000DB1C0008DB1C0008DB1C0008DB1C0008D3
:10013000DB1C0008DB1C0008DB1C0008DB1C0008C3
:10014000DB1C0008DB1C0008DB1C0008DB1C0008B3
:10015000DB1C0008DB1C0008DB1C0008DB1C0008A3
:10016000DB1C0008DB1C0008DB1C0008DB1C000893
:10017000DB1C0008DB1C0008DB1C0008DB1C000883
:10018000DB1C0008DB1C0008DB1C0008DB1C000873
:10019000DB1C0008DB1C0008DB1C0008DB1C000863
:1001A000DB1C0008DB1C0008DB1C000808B502464D
:1001B0000021024801F067FC08BD00BF00000140BB
:1001C00010B50B21062001F091FE4FF4C06001F044
:1001D0007AF82F4C012300221146204600F0DDFF63
:1001E00040F68E0001F06FF82146012000F03EFF3E
:1001F0000021012000F0E0FE012000F00BFF0120B3
:1002000000F026FF062001F01CFE04F580544FF498
:10021000007302220021204600F0E5FF4FF4007237
:100220000121204601F005F84FF40073002202215D
:10023000204600F0B2FF4FF4086001F044F8A4F546
:10024000883400231A461946204601F0E5F83E217D
:10025000204601F07AF9204601F0F4F8FF2120460B
:1002600001F077F906220021204601F0E4F900218F
:10027000204601F05CFB204601F015FC00221146EF
:10028000204601F000FC204601F018F910BD00BF27
:100290000000024010B5074C21780139C9B2064868
:1002A00000F001FE237810332370012000F0D0FE0F
:1002B00010BD00BF2C0000200000002038B540F227
:1002C000036001F000F840F2046000F0FCFF00F071
:1002D00069FC194B1C785B7844EA0324204600F043
:1002E000DDF8204600F069F8144B19795D79002299
:1002F000186841EA052100F0B2F900F059FA62B637
:10030000FFF75EFF204600F044F80D4D284600F050
:10031000E5FD00231A460121284600F00FFDC82103
:10032000284600F0C0FD40F2DB31284600F010FE08
:10033000204600F042F8FEE7B81F0008C41F00087E
:100340000000002000B5864600239C46184605E0C4
:100350000022104380B20CF1010C01330F2B0DDC95
:100360004EFA03F212F0010FF7D041FA0CF212F03C
:10037000010FEDD001229A4012B2EAE75DF804FBCA
:10038000012303FA00F0704700F5801080308002EE
:10039000704730B583B0ADF804009DF8045005F007
:1003A0000F00FFF7F1FF04462809FFF7E9FF81B2CC
:1003B000204600F0D3FE03B030BD30B583B0ADF8B9
:1003C00004009DF8045005F00F00FFF7DDFF044620
:1003D0002809FFF7D5FF81B2204600F0BDFE03B02B
:1003E00030BD30B583B0ADF804009DF8045005F081
:1003F0000F00FFF7C9FF04462809FFF7C1FF81B2CC
:10040000204600F0AEFE03B030BD30B583B0ADF88D
:1004100004009DF8053003F001038B420FD09DF8D6
:10042000045005F00F00FFF7AFFF04462809FFF75F
:10043000A7FF81B2204600F08FFE03B030BD9DF8CB
:10044000045005F00F00FFF79FFF04462809FFF74F
:1004500097FF81B2204600F081FEEEE700B583B041
:10046000ADF804009DF8040000F00F00FFF78CFFCA
:1004700000F080FE03B05DF804FB10B582B0ADF86B
:1004800004000C469DF8040000F00F00FFF77CFF0D
:10049000214600F078FE02B010BD0000F0B583B038
:1004A000ADF804009DF804302C4A1278934229D00C
:1004B0002B4A1278934239D02A4A1278934238D084
:1004C000294A1278934237D0284A1278934236D07C
:1004D000274A1278934235D0264A1278934234D074
:1004E000254A1278934233D0244A1278934232D06C
:1004F000234A1278934202D00026012704E0002606
:10050000374601E0002601279DF8045005F00F0052
:10051000FFF73AFF04462809FFF732FF83B232465D
:100520003946204600F039FE03B0F0BD0026012711
:10053000EAE700260127E7E700260127E4E701268E
:100540000027E1E701260027DEE701260027DBE799
:1005500001260027D8E701260027D5E7B81F0008A5
:10056000B41F0008BC1F0008B01F0008981F000837
:100570009C1F0008A01F0008A41F0008A81F000857
:10058000AC1F0008F0B583B0ADF80400032908D80B
:100590000C461546022A08D90198FFF77FFF03B0E1
:1005A000F0BD0198FFF77AFFF9E79DF8047007F0B6
:1005B0000F00FFF7E9FE06463809FFF7E1FE83B2B8
:1005C0002A462146304600F0E8FDE8E7F0B583B062
:1005D000ADF804009DF8044004F00F00FFF7D4FECE
:1005E00005462009FFF7CCFE06460024274601E019
:1005F00001370134092C14DC284600F0BBFD3042E1
:1006000004D19DF8053013F0010FF1D1284600F018
:10061000B1FD3042EDD09DF8053013F0010FE8D167
:10062000E6E7042F0CDC002003B0F0BD284600F004
:10063000A1FD304211D09DF8053013F0010F0AD111
:10064000284600F097FD3042F0D19DF8053013F0B8
:10065000010FF5D1EAE70120E6E70120E4E730B534
:1006600083B002AB03E90300BDF8025011462846EF
:10067000FFF768FEBDF804404440A4B29DF80000B6
:1006800000F00F00FFF780FE436923EA05031C43D7
:10069000446103B030BD000010B50146074C204650
:1006A00000F057FF0121204601F041FA01F049FC1A
:1006B000204600F003FF30BF10BD00BF0014004013
:1006C00010B540F2036000F0FEFD40F68E0000F031
:1006D000FAFD2A4B1C785B7844EA03242046FFF796
:1006E000DDFE2046FFF769FE254B18785B78002277
:1006F000022140EA0320FFF745FF224C4FF48053CC
:1007000000221146204600F06EFD4FF48052012178
:10071000204600F08EFD4FF4805300220221204637
:1007200000F03BFD4FF4086000F0CDFDA4F58634E9
:1007300000231A461946204600F06EFE3E21204650
:1007400000F003FF204600F07DFEFF21204600F070
:1007500000FF06220021204600F06DFF0021204608
:1007600001F0E5F8204601F09EF9002211462046EE
:1007700001F089F9204600F0A1FE10BDB01F00086D
:10078000B41F0008000C024008B5044B1A785878D2
:1007900042EA0020FFF725FE08BD00BFB41F000895
:1007A000024A136801331360704700BF3000002015
:1007B00008B501F02EFB042001F0F0FA01F014FB63
:1007C0004FF47A5001F0D8FA4FF0E0234FF47A5208
:1007D0009A610221FF2001F089FBFF2001F031FB2B
:1007E000024B00221A6001F00DFB08BD3000002012
:1007F000044B1B68184400E030BF024B1B68834267
:10080000FAD970473000002010B540F6050000F01E
:100810005AFD0F4C0F21204600F097FE204600F0B5
:1008200016FE204600F02CFE204600F038FE012186
:10083000204600F0D1FD0121204600F0EAFD022112
:10084000372001F053FB372001F0FBFA10BD00BF49
:100850000014004010B5044605E04FF47A70FFF72D
:100860001BFFA4F57A74B4F57A7FF6D204B910BDF3
:10087000A0B2FFF711FFFAE708B50121014800F027
:10088000C8FD08BD00140040002834D038B50C461F
:10089000C3698569A3B1B3B1C5B1B4F57A7F04D397
:1008A0001548A0FB0420800998471348A0FB04309A
:1008B00080094FF47A7303FB104000B1A84738BD9C
:1008C000002DE8D1FBE72046A847F8E70A4AA2FB3B
:1008D000041292094FF47A7101FB124232B10648B8
:1008E000A0FB0420800901309847E8E70248A0FBFC
:1008F00004208009F8E77047D34D621010F0800F94
:1009000000F01581A0F193036C2B00F20D81DFE85C
:1009100013F0FD00FF000B010B010B010B010B019C
:100920000B010B010B010B010B010B010B010B0167
:100930000B010B010B0173000B010B0179000B0183
:10094000AF0001010B010B010B01830007010B013B
:100950008100CB000E010B010B010901C300050151
:10096000C10003010B010B010B01CD006D000D0156
:100970006F007100750077007B007D007F008500AF
:10098000870089008B008D008F00910093009500F7
:10099000970099009B009D009F00A100A300A50067
:1009A000A700A900AB00AD00B100B300B500B700CF
:1009B000B900BB00BD00BF00C500C700C900CF0023
:1009C000D100D300D500D700D900DB00DD00DF0067
:1009D000E100E300E500E700E900EB00ED00EF00D7
:1009E000F100F300F500F700F900FB00412070472B
:1009F00042207047A1207047A1207047E020704737
:100A000045207047A2207047A3207047A42070475C
:100A1000A52070474920704749207047A62070479D
:100A20004B207047A72070474D20704748207047E3
:100A30004F207047A82070475020704743207047D0
:100A400054207047A9207047AA207047582070474B
:100A5000E1207047AB207047AC207047E220704720
:100A6000AD207047AE20704762207047AF207047BE
:100A700045207047B0207047B12070476120704713
:100A8000B2207047B3207047B4207047E32070470E
:100A90006520704765207047B5207047B6207047C5
:100AA000B7207047B82070476920704769207047A9
:100AB000B9207047BA207047BB207047BC207047F0
:100AC000BD2070476F207047BE2070477020704770
:100AD00063207047BF20704779207047E42070473B
:100AE00078207047E5207047C0207047C1207047CC
:100AF000E6207047C2207047C3207047C42070476B
:100B0000C5207047C6207047C7207047CA2070476D
:100B1000CB207047C8207047C9207047CC20704751
:100B2000EF207047DF207047FF207047A0207047FC
:100B300038B504460D4683681A785878012142EA90
:100B40000020FFF762FC2368197993F805C005F0CF
:100B50000F02186841EA0C21FFF781FD01212046B0
:100B6000FFF792FEA3681A785878002142EA002025
:100B7000FFF74BFC01212046FFF786FE38BD38B554
:100B800090F8203013F0010F00D138BD04460D4617
:100B90000909FFF7CDFF05F00F012046FFF7C8FF59
:100BA000F3E7000038B5264B1D7805F00F00FFF77E
:100BB000EBFB04462809FFF7E3FB83B20022012187
:100BC000204600F0EAFA1F4B1D7805F00F00FFF7F2
:100BD000DBFB04462809FFF7D3FB83B20022012187
:100BE000204600F0DAFA184B1D7805F00F00FFF7E9
:100BF000CBFB04462809FFF7C3FB83B20022012187
:100C0000204600F0CAFA114B1D7805F00F00FFF7DF
:100C1000BBFB04462809FFF7B3FB83B20022012186
:100C2000204600F0BAFA0A4C207800F00F00FFF7D7
:100C3000ABFB63880022012100F0AFFA38BD00BF92
:100C4000C01F0008D01F0008D41F0008CC1F0008D8
:100C5000C41F000820B370B515461E46044690F820
:100C6000283013F0010F1ED0C368A3B16268137857
:100C7000507843EA0020FFF7C8FBE2681378507809
:100C8000294643EA0020FFF7C0FB31782046FFF7F2
:100C900076FF002070BD002AE8D06FF00200F9E76F
:100CA0004FF0FF3070474FF0FF30F3E730B583B0BF
:100CB000044601238DF807300DF107030022114689
:100CC000FFF7C8FF054610B1284603B030BD40F21B
:100CD000FA512046FFF7D8FDF6E730B583B0044659
:100CE00002238DF807300DF1070300221146FFF7AC
:100CF000B1FF054610B1284603B030BD40F2FA51AD
:100D00002046FFF7C1FDF6E730B583B00446490041
:100D100041F0040149B211438DF807100DF10703AA
:100D200000221146FFF796FF054610B1284603B092
:100D300030BD27212046FFF7A7FDF7E730B583B088
:100D40000446890041F0080149B241EA420149B232
:100D500019438DF807100DF1070300221146FFF724
:100D600079FF054610B1284603B030BD2721204643
:100D7000FFF78AFDF7E730B583B00446C90041F0BC
:100D8000100149B241EA82018DF807100DF1070305
:100D900000221146FFF75EFF054610B1284603B05A
:100DA00030BD27212046FFF76FFDF7E730B583B050
:100DB00011F0800F1CD1044612B111F0C00F1AD1EE
:100DC0007AB1402319438DF807100DF10703002273
:100DD00011462046FFF73EFF054620B1284603B0E6
:100DE00030BD8023EEE727212046FFF74DFDF5E7D4
:100DF0006FF00305F2E76FF00305EFE710B582B07F
:100E000004468DF807100DF1070300220121FFF7BA
:100E100021FF2B212046FFF737FD02B010BD10B592
:100E20000446436A0846984701462046FFF7E6FF16
:100E300010BD10B5044643681A785878002142EA7C
:100E40000020FFF7E2FAE3681A785878002142EAB6
:100E50000020FFF7DAFA03212046FFF769FE41F28E
:100E600004012046FFF710FD02212046FFF760FE37
:100E700064212046FFF708FD02212046FFF758FEB7
:100E800027212046FFF700FD00231A4601212046B6
:100E9000FFF754FF2046FFF709FF002201212046FB
:100EA000FFF732FF10BD98B108B543691BB1084682
:100EB0009847002008BD03696BB11A78587800394B
:100EC00018BF012142EA0020FFF79FFA0020F1E756
:100ED0006FF0030070476FF00300EBE720B308B535
:100EE000034602681AB3426822B382682AB3826951
:100EF0008AB193F8202012F0010F21D05A6A82B1F2
:100F000093F8282042F0010283F828201846FFF7C2
:100F100090FF002008BDC269002AEAD16FF00400EA
:100F2000F8E7094A5A62EBE76FF0030070476FF089
:100F30000400EFE76FF00400ECE76FF00400E9E76E
:100F40006FF00100E6E700BFFD08000870470000F1
:100F500070B584B006460D1E01DB002415E06D213E
:100F6000FFF75DFFF9E7134A82FB0532EB17C3EB8E
:100F7000A2031A4603EB8303A5EB4303303304A912
:100F8000214401F8103C15460134002DEBD104AB8F
:100F90002344002203F8102C013C07E004AB234457
:100FA00013F8101C3046FFF73AFF013C002CF5DA2D
:100FB00004B070BD67666666012910D002291BD097
:100FC00001B17047124BD3F8082C0243C3F8082C28
:100FD000D3F80C2C22EA0000C3F80C0C70470C4B21
:100FE000D3F8082C22EA0002C3F8082CD3F80C2C02
:100FF0001043C3F80C0C7047054BD3F8082C024380
:10100000C3F8082CD3F80C2C1043C3F80C0CD8E709
:1010100000300140054BD3F8002C0243C3F8002CEC
:10102000D3F8042C1043C3F8040C7047003001407F
:10103000064BD3F8001C21EA0001C3F8001CD3F8CA
:10104000042C22EA0002C3F8042C7047003001404F
:10105000014BC3F8140C704700300140024BD3F829
:10106000143C1840704700BF0030014000225FE090
:10107000A3F50063994249D003F58063994247D1B3
:10108000022302F0030E4FEA8E0E0F2404FA0EF52F
:101090002C4C04EB920C4FEA8C0CDCF8004024EA58
:1010A000050403FA0EF32343CCF8003001320F2A73
:1010B0003CD8012393400342F8D0234B994221D0DE
:1010C0000DD8A3F5406399421ED0D1D91F4B994248
:1010D00020D003F5806399421ED10523D1E71C4B34
:1010E00099421BD004D91B4B99421DD10A23C8E752
:1010F000A3F50063994213D003F58063994211D19F
:101100000823BEE70623BCE70323BAE70123B8E7B9
:101110000023B6E70423B4E70023B2E70923B0E7CE
:101120000723AEE70023ACE70023AAE730BD013276
:101130000F2A05D8012393400342F8D030B5BCE70D
:10114000704700BF024E001000180240001002401D
:101150000024024000280240816170470904816137
:101160007047436901EA030221EA030141EA0241AF
:1011700081617047006980B2704710B50C46FFF777
:10118000F9FF204010BD4161704741F48033C361D5
:10119000C161C361C369C3697047F0B50668C568BA
:1011A0004FF0000C03E00CF1010C1FFA8CFCBCF1B9
:1011B0000F0F15D843FA0CF414F0010FF3D04FEAD7
:1011C0004C0E032404FA0EF426EA040601FA0EF784
:1011D0003E4325EA040502FA0EFE4EEA0505E2E763
:1011E0000660C560F0BD10B5012906D0416821EA4E
:1011F000030141608468002105E0416819434160B2
:10120000F8E7013189B20F2911D843FA01FC1CF02B
:10121000010FF6D04FEA410C4FF0030E0EFA0CFE10
:1012200024EA0E0402FA0CFC4CEA0404E9E78460A8
:1012300010BD30B5046A456A00230DE04FEA830E05
:101240004FF00F0C0CFA0EFC24EA0C0401FA0EFE0F
:101250004EEA040401339BB2072B05D842FA03FC83
:101260001CF0010FEAD1F5E708230FE0A3F1080C09
:101270004FEA8C0C4FF00F0E0EFA0CFE25EA0E0E04
:1012800001FA0CFC4CEA0E0501339BB20F2B05D87A
:1012900042FA03FC1CF0010FE8D1F5E70462456255
:1012A00030BD03680B4303607047036823EA010302
:1012B0000360704703680B4303607047036823EAC9
:1012C000010303607047430903F1804303F50E33C4
:1012D0001A6800F01F00012101FA00F010431860A5
:1012E0007047430903F1804303F50E331A6800F099
:1012F0001F00012101FA00F022EA00001860704787
:10130000430903F1804303F50E33196800F01F0011
:10131000012202FA00F0014319601A6822EA000073
:1013200018607047430903F1804303F50E331A68D0
:1013300000F01F00012101FA00F01043186070470F
:10134000430903F1804303F50E331A6800F01F00D0
:10135000012101FA00F022EA000018607047000045
:10136000044AD2F8083823F4C00343EA4053C2F8D1
:101370000838704700300240032802D0052808D002
:101380007047084AD2F8003843F48023C2F8003886
:101390007047044AD2F8703843F00403C2F870383A
:1013A000704700BF00300240032802D0052808D053
:1013B0007047084AD2F8003823F48023C2F8003876
:1013C0007047044AD2F8703823F00403C2F870382A
:1013D000704700BF00300240C3680B43C3607047D2
:1013E000C36823EA0103C36070470369C2681340FE
:1013F0000B4203D0802903D801207047002070479A
:101400000020704703690B4201D100207047012082
:101410007047C9430161704710B4046824F45C7CD0
:101420001143194341EA0C0101605DF8044B704718
:1014300001F44073026822F44072026001681943AB
:1014400001607047036843F08003036070470368DE
:1014500023F080030360704701F06003026822F00C
:10146000600202600168194301607047036823F05D
:10147000100303607047036843F010030360704774
:10148000036843F0080303607047036823F0080310
:1014900003607047036823F0040303607047036828
:1014A00043F0040303607047036823F00203036002
:1014B0007047036843F0020303607047036843F01A
:1014C000010303607047036823F001030360704762
:1014D000436801F4FE410B4343607047436801F4E5
:1014E000FE4123EA010343607047436843F08003F1
:1014F00043607047436823F080034360704742684D
:1015000022F07002426043680B43436070474368B7
:1015100023F0080343607047436843F008034360C7
:101520007047436843F0040343607047436823F007
:10153000040343607047436843F00103436070470E
:10154000436823F001034360704781627047016381
:101550007047C1627047062918D8DFE801F0041708
:1015600009170E171300836943F0800383617047E6
:10157000836943F4004383617047C36943F0800388
:10158000C3617047C36943F40043C36170470629D0
:1015900018D8DFE801F0041709170E171300836944
:1015A00023F0800383617047836923F400438361E0
:1015B0007047C36923F08003C3617047C36923F494
:1015C0000043C3617047062918D8DFE801F004170B
:1015D00009170E171300836943F0040383617047F2
:1015E000836943F4806383617047C36943F00403F4
:1015F000C3617047C36943F48063C36170470629C0
:1016000018D8DFE801F0041709170E1713008369D3
:1016100023F0040383617047836923F4806383614B
:101620007047C36923F00403C3617047C36923F49F
:101630008063C3617047062900F2EA80DFE811F099
:101640000700E8004000E8007900E800B100836985
:1016500023F00303836183698361836923F070034B
:101660008361072A00F2D480DFE802F004070C113E
:10167000161B2025836983617047836943F010033B
:1016800083617047836943F02003836170478369F6
:1016900043F0300383617047836943F04003836103
:1016A0007047836943F0500383617047836943F057
:1016B000600383617047836943F0700383617047FF
:1016C000836923F44073836183698361836923F4AD
:1016D000E0438361072A00F29B80DFE802F0040701
:1016E0000C11161B2025836983617047836943F4BD
:1016F000805383617047836943F40053836170476B
:10170000836943F4405383617047836943F48043A2
:1017100083617047836943F4A043836170478369A1
:1017200043F4C04383617047836943F4E0438361BA
:101730007047C36923F00303C361C369C361C3690D
:1017400023F07003C361072A62D8DFE802F00407C0
:101750000C11161B2025C369C3617047C36943F090
:101760001003C3617047C36943F02003C36170472E
:10177000C36943F03003C3617047C36943F040035A
:10178000C3617047C36943F05003C3617047C369C5
:1017900043F06003C3617047C36943F07003C361E2
:1017A0007047C36923F44073C361C369C361C369EC
:1017B00023F4E043C361072A2AD8DFE802F00407D4
:1017C0000C11161B2025C369C3617047C36943F41C
:1017D0008053C3617047C36943F40053C3617047CA
:1017E000C36943F44053C3617047C36943F4804302
:1017F000C3617047C36943F4A043C3617047C369C1
:1018000043F4C043C3617047C36943F4E043C36119
:101810007047062918D8DFE801F0041709170E17DA
:101820001300836943F0080383617047836943F4BD
:10183000006383617047C36943F00803C361704765
:10184000C36943F40063C3617047062918D8DFE811
:1018500001F0041709170E171300836923F008031A
:1018600083617047836923F4006383617047C369B0
:1018700023F00803C3617047C36923F40063C361A5
:101880007047062927D8DFE801F00418091D0E2249
:101890001300036A23F0020303627047036A23F014
:1018A000200303627047036A23F4007303627047E6
:1018B000036A23F4005303627047036A23F00803AA
:1018C00003627047036A23F0800303627047036A70
:1018D00023F4006303627047062927D8DFE801F08C
:1018E0000418091D0E221300036A43F00203036269
:1018F0007047036A43F0200303627047036A43F4AE
:10190000007303627047036A43F400530362704735
:10191000036A43F0080303627047036A43F08003DD
:1019200003627047036A43F4006303627047062949
:1019300027D8DFE801F00418091D0E221300036AFE
:1019400043F0010303627047036A43F0100303622C
:101950007047036A43F4807303627047036A43F479
:10196000805303627047036A43F0040303627047C5
:10197000036A43F0400303627047036A43F48063E1
:1019800003627047062927D8DFE801F00418091D13
:101990000E221300036A23F0010303627047036AF7
:1019A00023F0100303627047036A23F48073036219
:1019B0007047036A23F4805303627047036A23F07D
:1019C000040303627047036A23F040030362704715
:1019D000036A23F4806303627047062927D8DFE88F
:1019E00001F004090E13181D2200436843F48073AC
:1019F00043607047436843F4007343607047436833
:101A000043F4806343607047436843F4006343607A
:101A10007047436843F4805343607047436843F41E
:101A2000005343607047436843F48043436070470A
:101A3000062927D8DFE801F004090E13181D22003B
:101A4000436823F4807343607047436823F4007352
:101A500043607047436823F4806343607047436882
:101A600023F4006343607047436823F4805343606A
:101A70007047436823F4005343607047436823F47E
:101A800080434360704706290CD8DFE801F0040B5F
:101A9000060B080B0A004263704782637047C263FB
:101AA000704702647047436C43F4004343647047DB
:101AB000436C23F4004343647047436C43F4804316
:101AC00043647047436C23F4804343647047436C22
:101AD00043F4005343647047436C23F4005343645E
:101AE0007047436C43F4805343647047436C23F462
:101AF000805343647047436C43F40063436470470E
:101B0000436C23F4006343647047436C43F4806385
:101B100043647047436C23F4806343647047436CB1
:101B20000B4343647047436C0B4343647047436902
:101B30000B4343617047406A704741627047032915
:101B400026D8DFE801F0020B141D836923F0F003AF
:101B50008361836943EA021282617047836923F4D7
:101B600070438361836943EA023282617047C369CB
:101B700023F0F003C361C36943EA0212C2617047F4
:101B8000C36923F47043C361C36943EA0232C2618B
:101B90007047032926D8DFE801F0020B141D836982
:101BA00023F00C038361836943EA820282617047F8
:101BB000836923F440638361836943EA82228261FB
:101BC0007047C36923F00C03C361C36943EA82020F
:101BD000C2617047C36923F44063C361C36943EAC8
:101BE0008222C261704702F00302012907D0032953
:101BF00005D003292BD8DFE801F009111A22531E62
:101C0000DBB2012BF5D882F00302F2E7836923F0FF
:101C10000303836183691A4382617047836923F4F4
:101C200040738361836943EA022282617047C3691A
:101C300023F00303C361C3691A43C2617047C369D8
:101C400023F44073C361C36943EA0222C26170474F
:101C5000036A8A00012191400B4303627047036AC3
:101C60008A000121914023EA0103036270478268E0
:101C700022F470628260836843EA012383607047C4
:101C8000826822F440528260836843EA01338360B1
:101C9000704721B1836843F40043836070478368D1
:101CA00023F4004383607047836823F00703836055
:101CB0008368194381607047836823F070038360F1
:101CC00083681943816070474FF0E022D2F8883D65
:101CD00043F47003C2F8883D7047FEE77047000088
:101CE00010B51B4B1B4903E051F8042B43F8042BA0
:101CF000194A9342F8D302E0002243F8042B174A12
:101D00009342F9D34FF0E022D2F8143D43F400732C
:101D1000C2F8143DFFF7D8FF114C02E054F8043B21
:101D20009847104B9C42F9D30F4C02E054F8043B07
:101D300098470E4B9C42F9D3FEF7C0FA0C4C02E0D8
:101D400054F8043B98470B4B9C42F9D310BD00BF9D
:101D500000000020DC1F00082C00002034000020C0
:101D6000DC1F0008DC1F0008DC1F0008DC1F000867
:101D7000DC1F0008DC1F000820F07F404FF0E0234C
:101D8000586170474FF0E023586920F07F4070475A
:101D90004FF0E023986920F07F4070474FF0E02239
:101DA000136923F0040300F0040003431361704738
:101DB00010B5B1FBF0F40B4B9C4210D86FF07F4391
:101DC0009C4208D3E4080020FFF7E8FF601EFFF7FD
:101DD000D3FF012010BD0420FFF7E0FFF6E700204D
:101DE000F8E700BFF7FFFF074FF0E022136943F069
:101DF0000203136170474FF0E022136923F00203DE
:101E0000136170474FF0E022136943F0010313613F
:101E100070474FF0E022136923F00103136170470C
:101E20004FF0E0231869C0F3004070474FF0E02303
:101E300000229A6170474FF0E023D86920F07F407C
:101E4000704700F01F0143099B0003F1604303F555
:101E5000614301228A401A607047000000F01F02AF
:101E6000400901239340024A42F82030704700BFE6
:101E700080E100E043099B0003F1604303F5624306
:101E80001A6800F01F00012303FA00F0024214BF99
:101E900018460020704700F01F0143099B0003F122
:101EA000604303F5624301228A401A6070470000D4
:101EB00000F01F02400901239340024A42F82030FB
:101EC000704700BF80E200E043099B0003F16043DC
:101ED00003F561431A6800F01F00012303FA00F0C4
:101EE000024214BF18460020704700005A2804D947
:101EF00000F00F00044BC154704700F1604000F542
:101F000064400170704700BF14ED00E043099B007E
:101F100003F1604303F563431A6800F01F000123D7
:101F200003FA00F0024214BF184600207047EF2861
:101F300006D84FF0E023D3F8002F1043C3F8000F6A
:101F40007047BFF35F8F704750E8000F704741E85C
:101F500000031846704710B50446FFF7F5FF30B18F
:101F60000124FFF7EEFFB4FA84F0400910BD2146CA
:101F70000120FFF7ECFF0446F3E710B504462046C6
:101F8000FFF7E9FF0028FAD010BD10B50446FFF7AF
:101F9000D8FF0023236010BDB2010000F001000053
:101FA00092010000620100008201000000000000B8
:101FB000F3000000C3000000D3000000E3000000B5
:101FC00094000000040000F000000000B4000000D5
:0C1FD00074000000A4000000E803000002
:101FDC00C41F0008D01F0008CC1F0008D41F000825
:101FEC0000000000AD01000800000000F10700082F
:0C1FFC0001000000FD08000800000000CB
:0400000508001CE1F2
:00000001FF
