:020000040800F2
:1000000000000220F1110008ED110008EB110008BA
:10001000EB110008EB110008EB11000800000000D4
:10002000000000000000000000000000ED110008CA
:10003000ED11000800000000ED110008AD010008FE
:10004000EB110008EB110008EB110008EB110008A0
:10005000EB110008EB110008EB110008EB11000890
:10006000EB110008EB110008EB110008EB11000880
:10007000EB110008EB110008EB110008EB11000870
:10008000EB110008EB110008EB110008EB11000860
:10009000EB110008EB110008EB110008EB11000850
:1000A000EB110008EB110008EB110008EB11000840
:1000B000EB110008EB110008EB110008EB11000830
:1000C000EB110008EB110008EB110008EB11000820
:1000D000EB110008EB110008EB110008EB11000810
:1000E000EB110008EB110008EB110008EB11000800
:1000F000EB110008EB110008EB110008EB110008F0
:10010000EB110008EB110008EB110008EB110008DF
:10011000EB110008EB110008EB110008D9020008F0
:10012000EB110008EB110008EB110008EB110008BF
:10013000EB110008EB110008EB110008EB110008AF
:10014000EB110008EB110008EB110008EB1100089F
:10015000EB110008EB110008EB110008EB1100088F
:10016000EB110008EB110008EB110008EB1100087F
:10017000EB110008EB110008EB110008EB1100086F
:10018000EB110008EB110008EB110008EB1100085F
:10019000EB110008EB110008EB110008EB1100084F
:1001A000EB110008EB110008EB110008024A13687C
:1001B00001331360704700BF0000002008B501F054
:1001C000B0F8042001F072F801F096F84FF4C8601E
:1001D00001F05AF84FF0E0234FF4C8629A6102210F
:1001E000FF2001F00BF9FF2001F0B3F8024B0022D1
:1001F0001A6001F08FF808BD0000002038B50546F0
:1002000040F6050000F0E8FA104C0F21204600F0FF
:1002100024FC4FF47A7105FB01F1204600F021FC2B
:10022000204600F097FB0121204600F05DFB0121F4
:10023000204600F076FB0221372001F0DFF837205E
:1002400001F087F8204600F0C1FB38BD00140040E3
:1002500010B540F6050000F0BFFA0F4C0F21204604
:1002600000F0FBFB204600F07AFB204600F090FBFC
:10027000204600F09CFB0121204600F035FB0121C7
:10028000204600F04EFB0221372001F0B7F837205E
:1002900001F05FF810BD00BF0014004010B5084C1D
:1002A0004FF47A71204600F0DCFB0121204600F07B
:1002B000C6FE01F0CEF8204600F088FB30BF10BD2E
:1002C0000014004010B502E0FFF7E8FF2046441E8E
:1002D0000028F9D110BD000008B50121014800F047
:1002E00020FB08BD0014004080B540F2036000F020
:1002F00073FA244B1C785B7844EA0324204600F010
:10030000D3F8204600F065F81F4B1F785B7847EA6A
:100310000327384600F0C8F81C4B1E785B7846EA85
:100320000326304600F0C0F8194B1D785B7845EA8B
:100330000325284600F0B8F84FF43043032200218B
:10034000144800F0D9F9384600F043F8304600F080
:1003500040F8284600F03DF8FFF77AFF4FF47A7036
:10036000FFF74CFF62B6204600F01FF8084B1A78E2
:10037000587842EA002000F040F84FF4FA70FFF796
:10038000A1FFF3E7D0140008C4140008C814000843
:10039000CC14000800100240012303FA00F070475B
:1003A00000F5801080308002704730B583B0ADF822
:1003B00004009DF8045005F00F00FFF7F1FF04461C
:1003C0002809FFF7E9FF81B2204600F050F903B099
:1003D00030BD30B583B0ADF804009DF8045005F091
:1003E0000F00FFF7DDFF04462809FFF7D5FF81B2B4
:1003F000204600F03AF903B030BD30B583B0ADF817
:1004000004009DF8045005F00F00FFF7C9FF0446F3
:100410002809FFF7C1FF81B2204600F02BF903B095
:1004200030BD30B583B0ADF8040079B19DF804500B
:1004300005F00F00FFF7B4FF04462809FFF7ACFFF3
:1004400081B2204600F011F903B030BD9DF8045090
:1004500005F00F00FFF7A4FF04462809FFF79CFFF3
:1004600081B2204600F003F9EEE700B583B0ADF8A5
:1004700004009DF8040000F00F00FFF791FF00F06A
:1004800002F903B05DF804FB10B582B0ADF80400CA
:100490000C469DF8040000F00F00FFF781FF214695
:1004A00000F0FAF802B010BDF0B583B0ADF804006A
:1004B0009DF804302C4A1278934229D02B4A1278A6
:1004C000934239D02A4A1278934238D0294A127876
:1004D000934237D0284A1278934236D0274A12786E
:1004E000934235D0264A1278934234D0254A127866
:1004F000934233D0244A1278934232D0234A12785E
:10050000934202D00026012704E00026374601E08E
:10051000002601279DF8045005F00F00FFF740FF6B
:1005200004462809FFF738FF83B232463946204691
:1005300000F0BCF803B0F0BD00260127EAE7002672
:100540000127E7E700260127E4E701260027E1E786
:1005500001260027DEE701260027DBE7012600272A
:10056000D8E701260027D5E7CC140008C8140008F6
:10057000D0140008C4140008AC140008B01400081B
:10058000B4140008B8140008BC140008C014000813
:10059000F0B583B0ADF80400032908D80C46154621
:1005A000022A08D90198FFF77FFF03B0F0BD019838
:1005B000FFF77AFFF9E79DF8047007F00F00FFF7E7
:1005C000EFFE06463809FFF7E7FE83B22A462146CA
:1005D000304600F06BF8E8E7F0B583B0ADF8040002
:1005E0009DF8044004F00F00FFF7DAFE05462009ED
:1005F000FFF7D2FE06460024274601E0013701340A
:10060000092C14DC284600F03EF8304204D19DF855
:10061000053013F0010FF1D1284600F034F83042D4
:10062000EDD09DF8053013F0010FE8D1E6E7042F77
:100630000CDC002003B0F0BD284600F024F8304266
:1006400011D09DF8053013F0010F0AD1284600F0B3
:100650001AF83042F0D19DF8053013F0010FF5D1B2
:10066000EAE70120E6E70120E4E781617047090439
:1006700081617047436901EA030221EA030141EA0B
:10068000024181617047006980B2704710B50C4625
:10069000FFF7F9FF204010BD4161704741F48033FE
:1006A000C361C161C361C369C3697047F0B50668BE
:1006B000C5684FF0000C03E00CF1010C1FFA8CFC34
:1006C000BCF10F0F15D843FA0CF414F0010FF3D05E
:1006D0004FEA4C0E032404FA0EF426EA040601FA4B
:1006E0000EF73E4325EA040502FA0EFE4EEA050522
:1006F000E2E70660C560F0BD10B5012906D041688B
:1007000021EA030141608468002105E04168194342
:100710004160F8E7013189B20F2911D843FA01FC91
:100720001CF0010FF6D04FEA410C4FF0030E0EFA09
:100730000CFE24EA0E0402FA0CFC4CEA0404E9E77D
:10074000846010BD30B5046A456A00230DE04FEAAD
:10075000830E4FF00F0C0CFA0EFC24EA0C0401FA85
:100760000EFE4EEA040401339BB2072B05D842FA71
:1007700003FC1CF0010FEAD1F5E708230FE0A3F119
:10078000080C4FEA8C0C4FF00F0E0EFA0CFE25EA07
:100790000E0E01FA0CFC4CEA0E0501339BB20F2B36
:1007A00005D842FA03FC1CF0010FE8D1F5E704621A
:1007B000456230BD03680B4303607047036823EA5A
:1007C00001030360704703680B43036070470368CD
:1007D00023EA010303607047430903F1804303F5F3
:1007E0000E331A6800F01F00012101FA00F01043D7
:1007F00018607047430903F1804303F50E331A680C
:1008000000F01F00012101FA00F022EA0000186048
:100810007047430903F1804303F50E33196800F074
:100820001F00012202FA00F0014319601A6822EA4F
:10083000000018607047430903F1804303F50E334D
:100840001A6800F01F00012101FA00F0104318603F
:100850007047430903F1804303F50E331A6800F033
:100860001F00012101FA00F022EA00001860704721
:10087000044AD2F8083823F4C00343EA4053C2F8CC
:100880000838704700300240032802D0052808D0FD
:100890007047084AD2F8003843F48023C2F8003881
:1008A0007047044AD2F8703843F00403C2F8703835
:1008B000704700BF00300240032802D0052808D04E
:1008C0007047084AD2F8003823F48023C2F8003871
:1008D0007047044AD2F8703823F00403C2F8703825
:1008E000704700BF00300240C3680B43C3607047CD
:1008F000C36823EA0103C36070470369C2681340F9
:100900000B4203D0802903D8012070470020704794
:100910000020704703690B4201D10020704701207D
:100920007047C9430161704710B4046824F45C7CCB
:100930001143194341EA0C0101605DF8044B704713
:1009400001F44073026822F44072026001681943A6
:1009500001607047036843F08003036070470368D9
:1009600023F080030360704701F06003026822F007
:10097000600202600168194301607047036823F058
:10098000100303607047036843F01003036070476F
:10099000036843F0080303607047036823F008030B
:1009A00003607047036823F0040303607047036823
:1009B00043F0040303607047036823F002030360FD
:1009C0007047036843F0020303607047036843F015
:1009D000010303607047036823F00103036070475D
:1009E000436801F4FE410B4343607047436801F4E0
:1009F000FE4123EA010343607047436843F08003EC
:100A000043607047436823F0800343607047426847
:100A100022F07002426043680B43436070474368B2
:100A200023F0080343607047436843F008034360C2
:100A30007047436843F0040343607047436823F002
:100A4000040343607047436843F001034360704709
:100A5000436823F00103436070478162704701637C
:100A60007047C1627047062918D8DFE801F0041703
:100A700009170E171300836943F0800383617047E1
:100A8000836943F4004383617047C36943F0800383
:100A9000C3617047C36943F40043C36170470629CB
:100AA00018D8DFE801F0041709170E17130083693F
:100AB00023F0800383617047836923F400438361DB
:100AC0007047C36923F08003C3617047C36923F48F
:100AD0000043C3617047062918D8DFE801F0041706
:100AE00009170E171300836943F0040383617047ED
:100AF000836943F4806383617047C36943F00403EF
:100B0000C3617047C36943F48063C36170470629BA
:100B100018D8DFE801F0041709170E1713008369CE
:100B200023F0040383617047836923F48063836146
:100B30007047C36923F00403C3617047C36923F49A
:100B40008063C3617047062900F2EA80DFE811F094
:100B50000700E8004000E8007900E800B100836980
:100B600023F00303836183698361836923F0700346
:100B70008361072A00F2D480DFE802F004070C1139
:100B8000161B2025836983617047836943F0100336
:100B900083617047836943F02003836170478369F1
:100BA00043F0300383617047836943F040038361FE
:100BB0007047836943F0500383617047836943F052
:100BC000600383617047836943F0700383617047FA
:100BD000836923F44073836183698361836923F4A8
:100BE000E0438361072A00F29B80DFE802F00407FC
:100BF0000C11161B2025836983617047836943F4B8
:100C0000805383617047836943F400538361704765
:100C1000836943F4405383617047836943F480439D
:100C200083617047836943F4A0438361704783699C
:100C300043F4C04383617047836943F4E0438361B5
:100C40007047C36923F00303C361C369C361C36908
:100C500023F07003C361072A62D8DFE802F00407BB
:100C60000C11161B2025C369C3617047C36943F08B
:100C70001003C3617047C36943F02003C361704729
:100C8000C36943F03003C3617047C36943F0400355
:100C9000C3617047C36943F05003C3617047C369C0
:100CA00043F06003C3617047C36943F07003C361DD
:100CB0007047C36923F44073C361C369C361C369E7
:100CC00023F4E043C361072A2AD8DFE802F00407CF
:100CD0000C11161B2025C369C3617047C36943F417
:100CE0008053C3617047C36943F40053C3617047C5
:100CF000C36943F44053C3617047C36943F48043FD
:100D0000C3617047C36943F4A043C3617047C369BB
:100D100043F4C043C3617047C36943F4E043C36114
:100D20007047062918D8DFE801F0041709170E17D5
:100D30001300836943F0080383617047836943F4B8
:100D4000006383617047C36943F00803C361704760
:100D5000C36943F40063C3617047062918D8DFE80C
:100D600001F0041709170E171300836923F0080315
:100D700083617047836923F4006383617047C369AB
:100D800023F00803C3617047C36923F40063C361A0
:100D90007047062927D8DFE801F00418091D0E2244
:100DA0001300036A23F0020303627047036A23F00F
:100DB000200303627047036A23F4007303627047E1
:100DC000036A23F4005303627047036A23F00803A5
:100DD00003627047036A23F0800303627047036A6B
:100DE00023F4006303627047062927D8DFE801F087
:100DF0000418091D0E221300036A43F00203036264
:100E00007047036A43F0200303627047036A43F4A8
:100E1000007303627047036A43F400530362704730
:100E2000036A43F0080303627047036A43F08003D8
:100E300003627047036A43F4006303627047062944
:100E400027D8DFE801F00418091D0E221300036AF9
:100E500043F0010303627047036A43F01003036227
:100E60007047036A43F4807303627047036A43F474
:100E7000805303627047036A43F0040303627047C0
:100E8000036A43F0400303627047036A43F48063DC
:100E900003627047062927D8DFE801F00418091D0E
:100EA0000E221300036A23F0010303627047036AF2
:100EB00023F0100303627047036A23F48073036214
:100EC0007047036A23F4805303627047036A23F078
:100ED000040303627047036A23F040030362704710
:100EE000036A23F4806303627047062927D8DFE88A
:100EF00001F004090E13181D2200436843F48073A7
:100F000043607047436843F400734360704743682D
:100F100043F4806343607047436843F40063436075
:100F20007047436843F4805343607047436843F419
:100F3000005343607047436843F480434360704705
:100F4000062927D8DFE801F004090E13181D220036
:100F5000436823F4807343607047436823F400734D
:100F600043607047436823F480634360704743687D
:100F700023F4006343607047436823F48053436065
:100F80007047436823F4005343607047436823F479
:100F900080434360704706290CD8DFE801F0040B5A
:100FA000060B080B0A004263704782637047C263F6
:100FB000704702647047436C43F4004343647047D6
:100FC000436C23F4004343647047436C43F4804311
:100FD00043647047436C23F4804343647047436C1D
:100FE00043F4005343647047436C23F40053436459
:100FF0007047436C43F4805343647047436C23F45D
:10100000805343647047436C43F400634364704708
:10101000436C23F4006343647047436C43F4806380
:1010200043647047436C23F4806343647047436CAC
:101030000B4343647047436C0B43436470474369FD
:101040000B4343617047406A704741627047032910
:1010500026D8DFE801F0020B141D836923F0F003AA
:101060008361836943EA021282617047836923F4D2
:1010700070438361836943EA023282617047C369C6
:1010800023F0F003C361C36943EA0212C2617047EF
:10109000C36923F47043C361C36943EA0232C26186
:1010A0007047032926D8DFE801F0020B141D83697D
:1010B00023F00C038361836943EA820282617047F3
:1010C000836923F440638361836943EA82228261F6
:1010D0007047C36923F00C03C361C36943EA82020A
:1010E000C2617047C36923F44063C361C36943EAC3
:1010F0008222C261704702F00302012907D003294E
:1011000005D003292BD8DFE801F009111A22531E5C
:10111000DBB2012BF5D882F00302F2E7836923F0FA
:101120000303836183691A4382617047836923F4EF
:1011300040738361836943EA022282617047C36915
:1011400023F00303C361C3691A43C2617047C369D3
:1011500023F44073C361C36943EA0222C26170474A
:10116000036A8A00012191400B4303627047036ABE
:101170008A000121914023EA0103036270478268DB
:1011800022F470628260836843EA012383607047BF
:10119000826822F440528260836843EA01338360AC
:1011A000704721B1836843F40043836070478368CC
:1011B00023F4004383607047836823F00703836050
:1011C0008368194381607047836823F070038360EC
:1011D00083681943816070474FF0E022D2F8883D60
:1011E00043F47003C2F8883D7047FEE77047000083
:1011F00010B51B4B1B4903E051F8042B43F8042B9B
:10120000194A9342F8D302E0002243F8042B174A0C
:101210009342F9D34FF0E022D2F8143D43F4007327
:10122000C2F8143DFFF7D8FF114C02E054F8043B1C
:101230009847104B9C42F9D30F4C02E054F8043B02
:1012400098470E4B9C42F9D3FFF74EF80C4C02E046
:1012500054F8043B98470B4B9C42F9D310BD00BF98
:1012600000000020D414000800000020040000202A
:10127000D4140008D4140008D4140008D4140008AE
:10128000D4140008D414000820F07F404FF0E0236D
:10129000586170474FF0E023586920F07F40704755
:1012A0004FF0E023986920F07F4070474FF0E02234
:1012B000136923F0040300F0040003431361704733
:1012C00010B5B1FBF0F40B4B9C4210D86FF07F438C
:1012D0009C4208D3E4080020FFF7E8FF601EFFF7F8
:1012E000D3FF012010BD0420FFF7E0FFF6E7002048
:1012F000F8E700BFF7FFFF074FF0E022136943F064
:101300000203136170474FF0E022136923F00203D8
:10131000136170474FF0E022136943F0010313613A
:1013200070474FF0E022136923F001031361704707
:101330004FF0E0231869C0F3004070474FF0E023FE
:1013400000229A6170474FF0E023D86920F07F4077
:10135000704700F01F0143099B0003F1604303F550
:10136000614301228A401A607047000000F01F02AA
:10137000400901239340024A42F82030704700BFE1
:1013800080E100E043099B0003F1604303F5624301
:101390001A6800F01F00012303FA00F0024214BF94
:1013A00018460020704700F01F0143099B0003F11D
:1013B000604303F5624301228A401A6070470000CF
:1013C00000F01F02400901239340024A42F82030F6
:1013D000704700BF80E200E043099B0003F16043D7
:1013E00003F561431A6800F01F00012303FA00F0BF
:1013F000024214BF18460020704700005A2804D942
:1014000000F00F00044BC154704700F1604000F53C
:1014100064400170704700BF14ED00E043099B0079
:1014200003F1604303F563431A6800F01F000123D2
:1014300003FA00F0024214BF184600207047EF285C
:1014400006D84FF0E023D3F8002F1043C3F8000F65
:101450007047BFF35F8F704750E8000F704741E857
:1014600000031846704710B50446FFF7F5FF30B18A
:101470000124FFF7EEFFB4FA84F0400910BD2146C5
:101480000120FFF7ECFF0446F3E710B504462046C1
:10149000FFF7E9FF0028FAD010BD10B50446FFF7AA
:1014A000D8FF0023236010BD10270000B201000008
:1014B000F0010000920100006201000082010000C2
:1014C00000000000F3000000C3000000D300000093
:0414D000E300000035
:04000005080011F1ED
:00000001FF
