:020000040800F2
:10000000000002204D1D0008491D0008471D000882
:10001000471D0008471D0008471D0008000000009C
:10002000000000000000000000000000491D000862
:10003000491D000800000000491D0008F1050008E6
:10004000471D0008471D0008471D0008471D000800
:10005000471D0008471D0008E50E0008471D000861
:10006000471D0008471D0008471D0008471D0008E0
:10007000471D0008471D0008471D0008471D0008D0
:10008000471D0008471D0008471D0008471D0008C0
:10009000471D0008471D0008471D0008471D0008B0
:1000A000471D0008471D0008471D0008471D0008A0
:1000B000471D0008471D0008471D0008471D000890
:1000C000471D0008471D0008471D0008471D000880
:1000D000471D0008471D0008471D0008471D000870
:1000E000471D0008471D0008471D0008471D000860
:1000F000471D0008471D0008471D0008471D000850
:10010000471D0008471D0008471D0008471D00083F
:10011000471D0008471D0008471D0008C9060008C4
:10012000471D0008471D0008471D0008471D00081F
:10013000471D0008471D0008471D0008471D00080F
:10014000471D0008471D0008471D0008471D0008FF
:10015000471D0008471D0008471D0008471D0008EF
:10016000471D0008471D0008471D0008471D0008DF
:10017000471D0008471D0008471D0008471D0008CF
:10018000471D0008471D0008471D0008471D0008BF
:10019000471D0008471D0008471D0008471D0008AF
:1001A000471D0008471D0008471D000838B50546D3
:1001B0000C4603E0284600F05BFD0134217800295D
:1001C000F8D138BD08B540F2036001F0B2F840F252
:1001D000046001F0AEF800F0D5FB204B1C785B7892
:1001E00044EA0324204600F0F1F81D4B1A785878B1
:1001F00042EA002000F0EAF8204600F076F8194BB9
:10020000197993F805C00022186841EA0C2100F022
:10021000BEF900F0F5F962B600F0F0FD204600F0FE
:1002200050F8114C204600F083FD00231A460121AE
:10023000204600F0ACFCC821204600F05DFD2046C1
:1002400000F0AFFD20B909492046FFF7AFFFFEE7F8
:1002500007490548FFF7AAFFF9E700BF3420000867
:100260003020000840200008000000200420000882
:100270000C20000800B5864600239C46184605E081
:100280000022104380B20CF1010C01330F2B0DDC66
:100290004EFA03F212F0010FF7D041FA0CF212F00D
:1002A000010FEDD001229A4012B2EAE75DF804FB9B
:1002B000012303FA00F0704700F5801080308002BF
:1002C000704730B583B0ADF804009DF8045005F0D8
:1002D0000F00FFF7F1FF04462809FFF7E9FF81B29D
:1002E000204600F071FF03B030BD30B583B0ADF8EB
:1002F00004009DF8045005F00F00FFF7DDFF0446F1
:100300002809FFF7D5FF81B2204600F05BFF03B05C
:1003100030BD30B583B0ADF804009DF8045005F051
:100320000F00FFF7C9FF04462809FFF7C1FF81B29C
:10033000204600F04CFF03B030BD30B583B0ADF8BF
:1003400004009DF8053003F001038B420FD09DF8A7
:10035000045005F00F00FFF7AFFF04462809FFF730
:10036000A7FF81B2204600F02DFF03B030BD9DF8FD
:10037000045005F00F00FFF79FFF04462809FFF720
:1003800097FF81B2204600F01FFFEEE700B583B073
:10039000ADF804009DF8040000F00F00FFF78CFF9B
:1003A00000F01EFF03B05DF804FB10B582B0ADF89D
:1003B00004000C469DF8040000F00F00FFF77CFFDE
:1003C000214600F016FF02B010BD0000F0B583B06A
:1003D000ADF804009DF804302C4A1278934229D0DD
:1003E0002B4A1278934239D02A4A1278934238D055
:1003F000294A1278934237D0284A1278934236D04D
:10040000274A1278934235D0264A1278934234D044
:10041000254A1278934233D0244A1278934232D03C
:10042000234A1278934202D00026012704E00026D6
:10043000374601E0002601279DF8045005F00F0023
:10044000FFF73AFF04462809FFF732FF83B232462E
:100450003946204600F0D7FE03B0F0BD0026012744
:10046000EAE700260127E7E700260127E4E701265F
:100470000027E1E701260027DEE701260027DBE76A
:1004800001260027D8E701260027D5E734200008F9
:1004900030200008382000082C2000081420000814
:1004A000182000081C200008202000082420000834
:1004B00028200008F0B583B0ADF80400032908D85F
:1004C0000C461546022A08D90198FFF77FFF03B0B2
:1004D000F0BD0198FFF77AFFF9E79DF8047007F087
:1004E0000F00FFF7E9FE06463809FFF7E1FE83B289
:1004F0002A462146304600F086FEE8E7F0B583B094
:10050000ADF804009DF8044004F00F00FFF7D4FE9E
:1005100005462009FFF7CCFE06460024274601E0E9
:1005200001370134092C14DC284600F059FE304212
:1005300004D19DF8053013F0010FF1D1284600F0E9
:100540004FFE3042EDD09DF8053013F0010FE8D199
:10055000E6E7042F0CDC002003B0F0BD284600F0D5
:100560003FFE304211D09DF8053013F0010F0AD143
:10057000284600F035FE3042F0D19DF8053013F0EA
:10058000010FF5D1EAE70120E6E70120E4E730B505
:1005900083B002AB03E90300BDF8025011462846C0
:1005A000FFF768FEBDF804404440A4B29DF8000087
:1005B00000F00F00FFF780FE436923EA05031C43A8
:1005C000446103B030BD000010B50146074C204621
:1005D00000F0F5FF0121204601F0DFFA01F0E7FC11
:1005E000204600F0A1FF30BF10BD00BF0014004046
:1005F000024A136801331360704700BF2C000020CB
:1006000008B501F03CFC042001F0FEFB01F022FCE7
:100610004FF47A5001F0E6FB4FF0E0234FF47A52AA
:100620009A610221FF2001F097FCFF2001F03FFCBE
:10063000024B00221A6001F01BFC08BD2C000020B8
:10064000044B1B68184400E030BF024B1B68834218
:10065000FAD970472C00002010B540F6050000F0D4
:1006600068FE0F4C0F21204600F0A5FF204600F049
:1006700024FF204600F03AFF204600F046FF01210B
:10068000204600F0DFFE0121204600F0F8FE0221A6
:10069000372001F061FC372001F009FC10BD00BFDC
:1006A0000014004010B5044605E04FF47A70FFF7DF
:1006B0008BFFA4F57A74B4F57A7FF6D204B910BD35
:1006C000A0B2FFF781FFFAE708B50121014800F069
:1006D000D6FE08BD00140040002834D038B50C46C2
:1006E000C3698569A3B1B3B1C5B1B4F57A7F04D349
:1006F0001548A0FB0420800998471348A0FB04304C
:1007000080094FF47A7303FB104000B1A84738BD4D
:10071000002DE8D1FBE72046A847F8E70A4AA2FBEC
:10072000041292094FF47A7101FB124232B1064869
:10073000A0FB0420800901309847E8E70248A0FBAD
:1007400004208009F8E77047D34D621010F0800F45
:1007500000F0168193386C2800F20F81DFE810F06A
:10076000FF0001010D010D010D010D010D010D0134
:100770000D010D010D010D010D010D010D010D0109
:100780000D010D0173000D010D0179000D01AF0088
:1007900003010D010D010D01830009010D0181000F
:1007A000CD00BD000D010D010B01C5000701C30007
:1007B00005010D010D010D01CF006D000F016F004E
:1007C0007100750077007B007D007F008500870049
:1007D00089008B008D008F00910093009500970099
:1007E00099009B009D009F00A100A300A500A70009
:1007F000A900AB00AD00B100B300B500B700B9006F
:10080000BB00BF00C100C700C900CB00D100D300AE
:10081000D500D700D900DB00DD00DF00E100E300F8
:10082000E500E700E900EB00ED00EF00F100F30068
:10083000F500F700F900FB00FD0041207047422061
:100840007047A1207047A1207047E02070474520E5
:100850007047A2207047A3207047A4207047A520AE
:1008600070474920704749207047A62070474B20A9
:100870007047A72070474D207047482070474F2091
:100880007047A8207047502070474320704754207D
:100890007047A9207047AA20704758207047E12070
:1008A0007047AB207047AC207047E2207047AD2006
:1008B0007047AE20704762207047AF2070474520D8
:1008C0007047B0207047B120704761207047B22058
:1008D0007047B3207047B420704700207047E32072
:1008E00070476520704701207047B5207047B620DB
:1008F0007047B7207047B8207047692070470220C2
:100900007047B9207047BA207047BB207047BC20A1
:100910007047BD2070476F207047BE207047702021
:10092000704763207047BF20704779207047E420EC
:10093000704778207047E5207047C0207047C1207D
:100940007047E6207047C2207047C3207047C4201C
:100950007047C5207047C6207047C7207047CA201F
:100960007047CB207047C8207047C9207047CC2003
:100970007047EF207047DF207047FF207047A020AE
:100980007047000038B5264B1D7805F00F00FFF7C3
:1009900093FC04462809FFF78BFC83B20022012157
:1009A000204600F030FC1F4B1D7805F00F00FFF7CC
:1009B00083FC04462809FFF77BFC83B20022012157
:1009C000204600F020FC184B1D7805F00F00FFF7C3
:1009D00073FC04462809FFF76BFC83B20022012157
:1009E000204600F010FC114B1D7805F00F00FFF7BA
:1009F00063FC04462809FFF75BFC83B20022012157
:100A0000204600F000FC0A4C207800F00F00FFF7B1
:100A100053FC63880022012100F0F5FB38BD00BFC4
:100A20003C2000084C200008502000084820000806
:100A30004020000838B504460D4683681A78587877
:100A4000012142EA0020FFF778FC2368197993F826
:100A500005C005F00F02186841EA0C21FFF797FD69
:100A600001212046FFF738FEA3681A785878002144
:100A700042EA0020FFF761FC01212046FFF72CFE2F
:100A800038BD38B590F8203013F0010F00D138BDD3
:100A900004460D460909FFF7CDFF05F00F0120467A
:100AA000FFF7C8FFF3E720B370B515461E460446AE
:100AB00090F8283013F0010F1ED0C368A3B162680C
:100AC0001378507843EA0020FFF737FCE268137888
:100AD0005078294643EA0020FFF72FFC3178204662
:100AE000FFF7CFFF002070BD002AE8D06FF00200B2
:100AF000F9E74FF0FF3070474FF0FF30F3E730B5C4
:100B000083B0044601238DF807300DF1070300225E
:100B10001146FFF7C8FF054610B1284603B030BDA7
:100B200040F2FA512046FFF7D7FDF6E730B583B023
:100B3000044602238DF807300DF107030022114609
:100B4000FFF7B1FF054610B1284603B030BD40F2B3
:100B5000FA512046FFF7C0FDF6E730B583B00446F2
:100B6000490041F0040149B211438DF807100DF11D
:100B7000070300221146FFF796FF054610B12846ED
:100B800003B030BD27212046FFF7A6FDF7E730B5BB
:100B900083B00446890041F0080149B241EA4201AC
:100BA00049B219438DF807100DF1070300221146D1
:100BB000FFF779FF054610B1284603B030BD272165
:100BC0002046FFF789FDF7E730B583B00446C9003A
:100BD00041F0100149B241EA82018DF807100DF190
:100BE000070300221146FFF75EFF054610B12846B5
:100BF00003B030BD27212046FFF76EFDF7E730B583
:100C000083B011F0800F1CD1044612B111F0C00F57
:100C10001AD17AB1402319438DF807100DF107035B
:100C2000002211462046FFF73EFF054620B1284628
:100C300003B030BD8023EEE727212046FFF74CFDAF
:100C4000F5E76FF00305F2E76FF00305EFE710B586
:100C500082B004468DF807100DF107030022012130
:100C6000FFF721FF2B212046FFF736FD02B010BD14
:100C700010B50446436A0846984701462046FFF7E8
:100C8000E6FF10BD10B5044643681A785878002175
:100C900042EA0020FFF751FBE3681A7858780021F8
:100CA00042EA0020FFF749FB03212046FFF7C2FE7E
:100CB00041F204012046FFF70FFD02212046FFF715
:100CC000B9FE64212046FFF707FD02212046FFF709
:100CD000B1FE27212046FFF7FFFC00231A46012121
:100CE0002046FFF754FF2046FFF709FF00220121AD
:100CF0002046FFF732FF10BD98B108B543691BB11C
:100D000008469847002008BD03696BB11A785878E7
:100D1000003918BF012142EA0020FFF70EFB002036
:100D2000F1E76FF0030070476FF00300EBE700009E
:100D300020B308B5034602681AB3426822B382683A
:100D40002AB382698AB193F8202012F0010F21D0D2
:100D50005A6A82B193F8282042F0010283F82820D1
:100D60001846FFF78FFF002008BDC269002AEAD1AC
:100D70006FF00400F8E7094A5A62EBE76FF00300EE
:100D800070476FF00400EFE76FF00400ECE76FF0DE
:100D90000400E9E76FF00100E6E700BF4D07000837
:100DA000704738B5044601220021FFF728FF10BB29
:100DB000054600212046FFF764FE01212046FFF78B
:100DC00060FE1F212046FFF75CFE10212046FFF742
:100DD00058FE10212046FFF754FE10212046FFF751
:100DE00050FE10212046FFF74CFE00212046FFF761
:100DF00048FE284638BD4FF0FF35FAE710B50B2105
:100E0000062001F0A9F84FF4C06000F092FA2F4CD0
:100E1000012300221146204600F0F5F940F68E002D
:100E200000F087FA2146012000F056F90021012048
:100E300000F0F8F8012000F023F9012000F03EF95D
:100E4000062001F034F804F580544FF400730222B8
:100E50000021204600F0FDF94FF4007201212046E8
:100E600000F01DFA4FF4007300220221204600F02A
:100E7000CAF94FF4086000F05CFAA4F58834002346
:100E80001A461946204600F0FDFA3E21204600F0A1
:100E900092FB204600F00CFBFF21204600F08FFB68
:100EA00006220021204600F0FCFB0021204600F035
:100EB00074FD204600F02DFE00221146204600F071
:100EC00018FE204600F030FB10BD00BF00000240BD
:100ED00008B502460021024800F00BFE08BD00BF25
:100EE0000000014010B5074C21780139C9B206480D
:100EF000FFF702FF237810332370012000F0DEF8A3
:100F000010BD00BF3000002000000020682A35D04E
:100F100070B584B006460D46622A2DD0002901DB4B
:100F2000002416E02D21FFF7A3FE6D42F8E7144AD6
:100F300082FB0532EB17C3EBA2031A4603EB8303D4
:100F4000A5EB4303303304A9214401F8103C1546B6
:100F50000134002DEBDC04AB2344002203F8102CF9
:100F6000013C07E004AB234413F8101C3046FFF7A4
:100F70007FFE013C002CF5DA04B070BD704700BF65
:100F80006766666600B583B001900C4B1B6863B959
:100F90000022402101A8FFF732FE084A1368C3F17E
:100FA0000103136003B05DF804FB4FF47A70FFF7A0
:100FB00047FB01A8FFF7A3FDEFE700BF34000020C7
:100FC0000EB430B582B00190059D002413E001A855
:100FD000FFF7D8FF0BE020210198FFF749FE202101
:100FE0000198FFF745FE02E00198FFF79FFD0135EC
:100FF00001340F2C0BDC297871B10A29E7D00929BB
:10100000E9D00D29F0D00198FFF732FEEFE701A8F3
:10101000FFF7B8FF0024EEE702B0BDE8304003B0B0
:1010200070470000012910D002291BD001B1704780
:10103000124BD3F8082C0243C3F8082CD3F80C2C1D
:1010400022EA0000C3F80C0C70470C4BD3F8082CB4
:1010500022EA0002C3F8082CD3F80C2C1043C3F882
:101060000C0C7047054BD3F8082C0243C3F8082C2E
:10107000D3F80C2C1043C3F80C0CD8E70030014017
:10108000054BD3F8002C0243C3F8002CD3F8042CF2
:101090001043C3F8040C704700300140064BD3F8EE
:1010A000001C21EA0001C3F8001CD3F8042C22EA3A
:1010B0000002C3F8042C704700300140014BC3F814
:1010C000140C704700300140024BD3F8143C184018
:1010D000704700BF0030014000225FE0A3F50063CD
:1010E000994249D003F58063994247D1022302F027
:1010F000030E4FEA8E0E0F2404FA0EF52C4C04EB6F
:10110000920C4FEA8C0CDCF8004024EA050403FA48
:101110000EF32343CCF8003001320F2A3CD80123D0
:1011200093400342F8D0234B994221D00DD8A3F528
:10113000406399421ED0D1D91F4B994220D003F56C
:10114000806399421ED10523D1E71C4B99421BD0E5
:1011500004D91B4B99421DD10A23C8E7A3F50063AC
:10116000994213D003F58063994211D10823BEE759
:101170000623BCE70323BAE70123B8E70023B6E759
:101180000423B4E70023B2E70923B0E70723AEE75F
:101190000023ACE70023AAE730BD01320F2A05D8AF
:1011A000012393400342F8D030B5BCE7704700BF3D
:1011B000024E0010001802400010024000240240BD
:1011C00000280240816170470904816170474369CA
:1011D00001EA030221EA030141EA02418161704709
:1011E000006980B2704710B50C46FFF7F9FF204048
:1011F00010BD4161704741F48033C361C161C36177
:10120000C369C3697047F0B50668C5684FF0000C44
:1012100003E00CF1010C1FFA8CFCBCF10F0F15D888
:1012200043FA0CF414F0010FF3D04FEA4C0E0324F0
:1012300004FA0EF426EA040601FA0EF73E4325EA04
:10124000040502FA0EFE4EEA0505E2E70660C560F7
:10125000F0BD10B5012906D0416821EA03014160C3
:101260008468002105E0416819434160F8E70131D5
:1012700089B20F2911D843FA01FC1CF0010FF6D0F6
:101280004FEA410C4FF0030E0EFA0CFE24EA0E0456
:1012900002FA0CFC4CEA0404E9E7846010BD30B5A6
:1012A000046A456A00230DE04FEA830E4FF00F0CED
:1012B0000CFA0EFC24EA0C0401FA0EFE4EEA0404B9
:1012C00001339BB2072B05D842FA03FC1CF0010F37
:1012D000EAD1F5E708230FE0A3F1080C4FEA8C0CE4
:1012E0004FF00F0E0EFA0CFE25EA0E0E01FA0CFC62
:1012F0004CEA0E0501339BB20F2B05D842FA03FCD2
:101300001CF0010FE8D1F5E70462456230BD0368C7
:101310000B4303607047036823EA010303607047CF
:1013200003680B4303607047036823EA010303600B
:101330007047430903F1804303F50E331A6800F048
:101340001F00012101FA00F01043186070474309A3
:1013500003F1804303F50E331A6800F01F000121EA
:1013600001FA00F022EA000018607047430903F117
:10137000804303F50E33196800F01F00012202FAC2
:1013800000F0014319601A6822EA000018607047F3
:10139000430903F1804303F50E331A6800F01F0080
:1013A000012101FA00F0104318607047430903F16E
:1013B000804303F50E331A6800F01F00012101FA83
:1013C00000F022EA0000186070470000044AD2F8DA
:1013D000083823F4C00343EA4053C2F80838704782
:1013E00000300240032802D0052808D07047084A80
:1013F000D2F8003843F48023C2F800387047044A1A
:10140000D2F8703843F00403C2F87038704700BF58
:1014100000300240032802D0052808D07047084A4F
:10142000D2F8003823F48023C2F800387047044A09
:10143000D2F8703823F00403C2F87038704700BF48
:1014400000300240C3680B43C3607047C36823EA9F
:101450000103C36070470369C26813400B4203D0A5
:10146000802903D801207047002070470020704772
:1014700003690B4201D10020704701207047C94326
:101480000161704710B4046824F45C7C1143194373
:1014900041EA0C0101605DF8044B704701F44073B0
:1014A000026822F4407202600168194301607047CB
:1014B000036843F0800303607047036823F08003F0
:1014C0000360704701F06003026822F0600202606E
:1014D0000168194301607047036823F0100303603B
:1014E0007047036843F0100303607047036843F0DC
:1014F000080303607047036823F008030360704724
:10150000036823F0040303607047036843F0040397
:1015100003607047036823F00203036070470368A9
:1015200043F0020303607047036843F00103036064
:101530007047036823F0010303607047436801F4B8
:10154000FE410B4343607047436801F4FE4123EAC8
:10155000010343607047436843F080034360704772
:10156000436823F0800343607047426822F07002B2
:10157000426043680B4343607047436823F00803AD
:1015800043607047436843F0080343607047436813
:1015900043F0040343607047436823F0040343604F
:1015A0007047436843F0010343607047436823F08A
:1015B0000103436070478162704701637047C162F5
:1015C0007047062918D8DFE801F0041709170E172D
:1015D0001300836943F0800383617047836943F498
:1015E000004383617047C36943F08003C361704760
:1015F000C36943F40043C3617047062918D8DFE884
:1016000001F0041709170E171300836923F08003F4
:1016100083617047836923F4004383617047C36922
:1016200023F08003C3617047C36923F40043C3619F
:101630007047062918D8DFE801F0041709170E17BC
:101640001300836943F0040383617047836943F4A3
:10165000806383617047C36943F00403C3617047CB
:10166000C36943F48063C3617047062918D8DFE873
:1016700001F0041709170E171300836923F0040300
:1016800083617047836923F4806383617047C36912
:1016900023F00403C3617047C36923F48063C3610B
:1016A0007047062900F2EA80DFE811F00700E80041
:1016B0004000E8007900E800B100836923F00303EB
:1016C000836183698361836923F070038361072ADF
:1016D00000F2D480DFE802F004070C11161B20256D
:1016E000836983617047836943F0100383617047A6
:1016F000836943F0200383617047836943F03003BB
:1017000083617047836943F0400383617047836955
:1017100043F0500383617047836943F06003836142
:101720007047836943F0700383617047836923F4D2
:101730004073836183698361836923F4E043836138
:10174000072A00F29B80DFE802F004070C11161B49
:101750002025836983617047836943F480538361E3
:101760007047836943F4005383617047836943F48E
:10177000405383617047836943F4804383617047BA
:10178000836943F4A04383617047836943F4C04392
:1017900083617047836943F4E04383617047C369A1
:1017A00023F00303C361C369C361C36923F07003FA
:1017B000C361072A62D8DFE802F004070C11161B88
:1017C0002025C369C3617047C36943F01003C36137
:1017D0007047C36943F02003C3617047C36943F096
:1017E0003003C3617047C36943F04003C36170476E
:1017F000C36943F05003C3617047C36943F060039A
:10180000C3617047C36943F07003C3617047C36924
:1018100023F44073C361C369C361C36923F4E04324
:10182000C361072A2AD8DFE802F004070C11161B4F
:101830002025C369C3617047C36943F48053C36102
:101840007047C36943F40053C3617047C36943F4ED
:101850004053C3617047C36943F48043C361704719
:10186000C36943F4A043C3617047C36943F4C043F1
:10187000C3617047C36943F4E043C36170470629FD
:1018800018D8DFE801F0041709170E171300836951
:1018900043F0080383617047836943F40063836105
:1018A0007047C36943F00803C3617047C36943F4D9
:1018B0000063C3617047062918D8DFE801F00417F8
:1018C00009170E171300836923F00803836170471B
:1018D000836923F4006383617047C36923F00803BD
:1018E000C3617047C36923F40063C361704706296D
:1018F00027D8DFE801F00418091D0E221300036A3F
:1019000023F0020303627047036A23F0200303629B
:101910007047036A23F4007303627047036A23F479
:10192000005303627047036A23F0080303627047A1
:10193000036A23F0800303627047036A23F40063A1
:1019400003627047062927D8DFE801F00418091D53
:101950000E221300036A43F0020303627047036A16
:1019600043F0200303627047036A43F40073036289
:101970007047036A43F4005303627047036A43F0FD
:10198000080303627047036A43F0800303627047F1
:10199000036A43F4006303627047062927D8DFE82F
:1019A00001F00418091D0E221300036A43F001031D
:1019B00003627047036A43F0100303627047036ACF
:1019C00043F4807303627047036A43F480530362F5
:1019D0007047036A43F0040303627047036A43F0ED
:1019E000400303627047036A43F4806303627047F5
:1019F000062927D8DFE801F00418091D0E2213007C
:101A0000036A23F0010303627047036A23F01003A3
:101A100003627047036A23F4807303627047036AAA
:101A200023F4805303627047036A23F004030362C4
:101A30007047036A23F0400303627047036A23F48C
:101A4000806303627047062927D8DFE801F00409A4
:101A50000E13181D2200436843F4807343607047DF
:101A6000436843F4007343607047436843F4806302
:101A700043607047436843F40063436070474368C2
:101A800043F4805343607047436843F4005343601A
:101A90007047436843F4804343607047062927D862
:101AA000DFE801F004090E13181D2200436823F437
:101AB000807343607047436823F40073436070474A
:101AC000436823F4806343607047436823F40063F2
:101AD00043607047436823F4805343607047436812
:101AE00023F4005343607047436823F4804343600A
:101AF000704706290CD8DFE801F0040B060B080B31
:101B00000A004263704782637047C2637047026491
:101B10007047436C43F4004343647047436C23F4C1
:101B2000004343647047436C43F48043436470470D
:101B3000436C23F4804343647047436C43F4005385
:101B400043647047436C23F4005343647047436C11
:101B500043F4805343647047436C23F480534364DD
:101B60007047436C43F4006343647047436C23F451
:101B7000006343647047436C43F48063436470477D
:101B8000436C23F4806343647047436C0B434364AA
:101B90007047436C0B434364704743690B43436195
:101BA0007047406A704741627047032926D8DFE8D2
:101BB00001F0020B141D836923F0F0038361836934
:101BC00043EA021282617047836923F470438361A0
:101BD000836943EA023282617047C36923F0F003EC
:101BE000C361C36943EA0212C2617047C36923F447
:101BF0007043C361C36943EA0232C261704703297B
:101C000026D8DFE801F0020B141D836923F00C03D2
:101C10008361836943EA820282617047836923F4A6
:101C200040638361836943EA822282617047C369AA
:101C300023F00C03C361C36943EA8202C2617047A7
:101C4000C36923F44063C361C36943EA8222C2616A
:101C5000704702F00302012907D0032905D00329A8
:101C60002BD8DFE801F009111A22531EDBB2012B39
:101C7000F5D882F00302F2E7836923F0030383615E
:101C800083691A4382617047836923F440738361D7
:101C9000836943EA022282617047C36923F0030328
:101CA000C361C3691A43C2617047C36923F44073B7
:101CB000C361C36943EA0222C2617047036A8A00B2
:101CC000012191400B4303627047036A8A0001219E
:101CD000914023EA010303627047826822F4706234
:101CE0008260836843EA012383607047826822F43C
:101CF00040528260836843EA01338360704721B1B8
:101D0000836843F4004383607047836823F400438F
:101D100083607047836823F00703836083681943F7
:101D200081607047836823F0700383608368194380
:101D3000816070474FF0E022D2F8883D43F4700391
:101D4000C2F8883D7047FEE77047000010B51B4B96
:101D50001B4903E051F8042B43F8042B194A934222
:101D6000F8D302E0002243F8042B174A9342F9D338
:101D70004FF0E022D2F8143D43F40073C2F8143D52
:101D8000FFF7D8FF114C02E054F8043B9847104B82
:101D90009C42F9D30F4C02E054F8043B98470E4B99
:101DA0009C42F9D3FEF70EFA0C4C02E054F8043BC7
:101DB00098470B4B9C42F9D310BD00BF0000002098
:101DC000582000082C00002038000020582000086F
:101DD0005820000858200008582000085820000803
:101DE0005820000820F07F404FF0E02358617047F2
:101DF0004FF0E023586920F07F4070474FF0E02318
:101E0000986920F07F4070474FF0E022136923F07B
:101E1000040300F0040003431361704710B5B1FBE5
:101E2000F0F40B4B9C4210D86FF07F439C4208D3D8
:101E3000E4080020FFF7E8FF601EFFF7D3FF012052
:101E400010BD0420FFF7E0FFF6E70020F8E700BF31
:101E5000F7FFFF074FF0E022136943F0020313611D
:101E600070474FF0E022136923F0020313617047BB
:101E70004FF0E022136943F00103136170474FF004
:101E8000E022136923F00103136170474FF0E02350
:101E90001869C0F3004070474FF0E02300229A61B8
:101EA00070474FF0E023D86920F07F40704700F082
:101EB0001F0143099B0003F1604303F561430122C5
:101EC0008A401A607047000000F01F024009012399
:101ED0009340024A42F82030704700BF80E100E0A2
:101EE00043099B0003F1604303F562431A6800F065
:101EF0001F00012303FA00F0024214BF184600201D
:101F0000704700F01F0143099B0003F1604303F594
:101F1000624301228A401A607047000000F01F02ED
:101F2000400901239340024A42F82030704700BF25
:101F300080E200E043099B0003F1604303F5614345
:101F40001A6800F01F00012303FA00F0024214BFD8
:101F500018460020704700005A2804D900F00F00EE
:101F6000044BC154704700F1604000F564400170BB
:101F7000704700BF14ED00E043099B0003F160438C
:101F800003F563431A6800F01F00012303FA00F011
:101F9000024214BF184600207047EF2806D84FF0C1
:101FA000E023D3F8002F1043C3F8000F7047BFF3AE
:101FB0005F8F704750E8000F704741E800031846F4
:101FC000704710B50446FFF7F5FF30B10124FFF765
:101FD000EEFFB4FA84F0400910BD21460120FFF75E
:101FE000ECFF0446F3E710B504462046FFF7E9FF8F
:101FF0000028FAD010BD10B50446FFF7D8FF002323
:10200000236010BDB4B4B4B4000000004572726F18
:1020100072000000B2010000F00100009201000017
:10202000620100008201000000000000F3000000D7
:10203000C3000000D3000000E30000009400000093
:10204000040000F000000000B40000007400000074
:08205000A4000000E8030000F9
:10205800402000084C2000084820000850200008B4
:1020680000000000D10E0008000000004106000832
:0C207800010000004D07000800000000FF
:0400000508001D4D85
:00000001FF
