:020000040800F2
:1000000000000220610600085D0600085B0600088B
:100010005B0600085B0600085B06000800000000A5
:100020000000000000000000000000005D06000865
:100030005D060008000000005D0600085D0600087F
:100040005B0600085B0600085B0600085B0600080C
:100050005B0600085B0600085B0600085B060008FC
:100060005B0600085B0600085B0600085B060008EC
:100070005B0600085B0600085B0600085B060008DC
:100080005B0600085B0600085B0600085B060008CC
:100090005B0600085B0600085B0600085B060008BC
:1000A0005B0600085B0600085B0600085B060008AC
:1000B0005B0600085B0600085B0600085B0600089C
:1000C0005B0600085B0600085B0600085B0600088C
:1000D0005B0600085B0600085B0600085B0600087C
:1000E0005B0600085B0600085B0600085B0600086C
:1000F0005B0600085B0600085B0600085B0600085C
:100100005B0600085B0600085B0600085B0600084B
:100110005B0600085B0600085B0600085B0600083B
:100120005B0600085B0600085B0600085B0600082B
:100130005B0600085B0600085B0600085B0600081B
:100140005B0600085B0600085B0600085B0600080B
:100150005B0600085B0600085B0600085B060008FB
:100160005B0600085B0600085B0600085B060008EB
:100170005B0600085B0600085B0600085B060008DB
:100180005B0600085B0600085B0600085B060008CB
:100190005B0600085B0600085B0600085B060008BB
:1001A0005B0600085B0600085B06000882B0019051
:1001B000019B5A1E0192002BFAD102B0704790B1F8
:1001C000042812D0032813D0052814D0062815D0EF
:1001D000072816D0082817D0092818D00A2819D0BF
:1001E0000B2819D07047012070474FF4805070479A
:1001F0004FF4005070474FF4804070474FF4004078
:1002000070474FF4006070474FF4004070474FF460
:1002100000707047402070474FF4807070470000B6
:1002200090B1042812D0032812D0052812D0062835
:1002300012D0072812D0082812D0092812D00A2874
:1002400012D00B2812D070470948704709487047F0
:100250000848704707487047064870470648704787
:100260000348704704487047034870470248704786
:1002700000000240000C02400008024038B505466C
:10028000FFF7CEFF04462846FFF799FF81B22046CC
:1002900000F09BF838BD38B50546FFF7C1FF0446AE
:1002A0002846FFF78CFF81B2204600F090F838BD59
:1002B00038B50546FFF7B4FF04462846FFF77FFF31
:1002C00081B2204600F086F838BD38B50546FFF704
:1002D000A7FF04462846FFF772FF81B2204600F0D0
:1002E00076F838BD38B50546FFF79AFF044628462C
:1002F000FFF765FF81B2204600F067F838BD38B5DA
:100300000546FFF78DFF04462846FFF758FF81B2E8
:10031000204600F05FF838BDF8B507460D46164692
:10032000FFF77EFF04463846FFF749FF83B23246A7
:100330002946204600F06AF8F8BDF8B50446FFF7F4
:100340006FFF05462046FFF73AFF06460024274682
:1003500000E00134092C06DC284600F044F8304265
:10036000F7D10137F5E7042F06DD284600F03BF80A
:100370003042FAD00120F8BD0020FCE708B540F279
:10038000036000F0D9F840F2026000F0D5F80022D6
:1003900001210420FFF7C0FF002201210620FFF702
:1003A000BBFF012200210720FFF7B6FF0420FFF763
:1003B00065FF0620FFF762FF0720FFF7BEFF00285A
:1003C000FAD00420FFF774FFF6E781617047090453
:1003D00081617047436901EA030221EA030141EAAE
:1003E000024181617047006980B2704710B50C46C8
:1003F000FFF7F9FF204010BD4161704741F48033A1
:10040000C361C161C361C369C3697047F0B5066860
:10041000C5684FF0000C03E00CF1010C1FFA8CFCD6
:10042000BCF10F0F15D843FA0CF414F0010FF3D000
:100430004FEA4C0E032404FA0EF426EA040601FAED
:100440000EF73E4325EA040502FA0EFE4EEA0505C4
:10045000E2E70660C560F0BD10B5012906D041682D
:1004600021EA030141608468002105E041681943E5
:100470004160F8E7013189B20F2911D843FA01FC34
:100480001CF0010FF6D04FEA410C4FF0030E0EFAAC
:100490000CFE24EA0E0402FA0CFC4CEA0404E9E720
:1004A000846010BD30B5046A456A00230DE04FEA50
:1004B000830E4FF00F0C0CFA0EFC24EA0C0401FA28
:1004C0000EFE4EEA040401339BB2072B05D842FA14
:1004D00003FC1CF0010FEAD1F5E708230FE0A3F1BC
:1004E000080C4FEA8C0C4FF00F0E0EFA0CFE25EAAA
:1004F0000E0E01FA0CFC4CEA0E0501339BB20F2BD9
:1005000005D842FA03FC1CF0010FE8D1F5E70462BC
:10051000456230BD03680B4303607047036823EAFC
:1005200001030360704703680B430360704703686F
:1005300023EA010303607047430903F1804303F595
:100540000E331A6800F01F00012101FA00F0104379
:1005500018607047430903F1804303F50E331A68AE
:1005600000F01F00012101FA00F022EA00001860EB
:100570007047430903F1804303F50E33196800F017
:100580001F00012202FA00F0014319601A6822EAF2
:10059000000018607047430903F1804303F50E33F0
:1005A0001A6800F01F00012101FA00F010431860E2
:1005B0007047430903F1804303F50E331A6800F0D6
:1005C0001F00012101FA00F022EA000018607047C4
:1005D000044AD2F8083823F4C00343EA4053C2F86F
:1005E0000838704700300240032802D0052808D0A0
:1005F0007047084AD2F8003843F48023C2F8003824
:100600007047044AD2F8703843F00403C2F87038D7
:10061000704700BF00300240032802D0052808D0F0
:100620007047084AD2F8003823F48023C2F8003813
:100630007047044AD2F8703823F00403C2F87038C7
:10064000704700BF003002404FF0E022D2F8883DF2
:1006500043F47003C2F8883D7047FEE7704700001E
:1006600010B51B4B1B4903E051F8042B43F8042B36
:10067000194A9342F8D302E0002243F8042B174AA8
:100680009342F9D34FF0E022D2F8143D43F40073C3
:10069000C2F8143DFFF7D8FF114C02E054F8043BB8
:1006A0009847104B9C42F9D30F4C02E054F8043B9E
:1006B00098470E4B9C42F9D3FFF760FE0C4C02E0CA
:1006C00054F8043B98470B4B9C42F9D310BD00BF34
:1006D00000000020F80600080000002000000020B4
:1006E000F8060008F8060008F8060008F8060008F2
:0806F000F8060008F8060008F6
:040000050800066188
:00000001FF
