:020000040800F2
:1000000000000220410700083D0700083B070008E8
:100010003B0700083B0700083B0700080000000002
:100020000000000000000000000000003D07000884
:100030003D070008000000003D0700083D070008DC
:100040003B0700083B0700083B0700083B07000888
:100050003B0700083B0700083B0700083B07000878
:100060003B0700083B0700083B0700083B07000868
:100070003B0700083B0700083B0700083B07000858
:100080003B0700083B0700083B0700083B07000848
:100090003B0700083B0700083B0700083B07000838
:1000A0003B0700083B0700083B0700083B07000828
:1000B0003B0700083B0700083B0700083B07000818
:1000C0003B0700083B0700083B0700083B07000808
:1000D0003B0700083B0700083B0700083B070008F8
:1000E0003B0700083B0700083B0700083B070008E8
:1000F0003B0700083B0700083B0700083B070008D8
:100100003B0700083B0700083B0700083B070008C7
:100110003B0700083B0700083B0700083B070008B7
:100120003B0700083B0700083B0700083B070008A7
:100130003B0700083B0700083B0700083B07000897
:100140003B0700083B0700083B0700083B07000887
:100150003B0700083B0700083B0700083B07000877
:100160003B0700083B0700083B0700083B07000867
:100170003B0700083B0700083B0700083B07000857
:100180003B0700083B0700083B0700083B07000847
:100190003B0700083B0700083B0700083B07000837
:1001A0003B0700083B0700083B070008F8B5064678
:1001B0000F460024254601E00134E4B2092C07D89B
:1001C000304600F07FF93842F6D10135EDB2F3E761
:1001D000062D01D80020F8BD304600F073F93842F2
:1001E000FAD00120F7E7000008B540F2036000F004
:1001F00012FA40F2026000F00EFA194B1D785B789B
:1002000045EA0325FF221146284600F029F9154B3F
:100210001C785B7844EA0324FF221146204600F054
:100220001FF9114B18785B78FF22114640EA032032
:1002300000F016F9284600F038F8204600F035F8AE
:100240004FF400710948FFF7B1FF0028F8D0044BC4
:100250001A78587842EA002000F03BF8F0E700BF37
:10026000F4070008F0070008E00700080008024053
:10027000012303FA00F0704700F5801080308002FF
:10028000704730B583B0ADF804009DF8045005F018
:100290000F00FFF7F1FF04462809FFF7E9FF81B2DD
:1002A000204600F003F903B030BD30B583B0ADF89F
:1002B00004009DF8045005F00F00FFF7DDFF044631
:1002C0002809FFF7D5FF81B2204600F0EDF803B012
:1002D00030BD30B583B0ADF804009DF8045005F092
:1002E0000F00FFF7C9FF04462809FFF7C1FF81B2DD
:1002F000204600F0DEF803B030BD30B583B0ADF875
:10030000040079B19DF8045005F00F00FFF7B4FF29
:1003100004462809FFF7ACFF81B2204600F0C4F87C
:1003200003B030BD9DF8045005F00F00FFF7A4FFA7
:1003300004462809FFF79CFF81B2204600F0B6F87A
:10034000EEE700B583B0ADF804009DF8040000F0BE
:100350000F00FFF791FF00F0B5F803B05DF804FB64
:1003600010B582B0ADF804000C469DF8040000F012
:100370000F00FFF781FF214600F0ADF802B010BD7D
:1003800030B583B0ADF804009DF8044004F00F00D0
:10039000FFF772FF05462009FFF76AFF264B1B781F
:1003A0009C4229D0254B1B789C422DD0244B1B7896
:1003B0009C422CD0234B1B789C422BD0224B1B7889
:1003C0009C422AD0214B1B789C4229D0204B1B7881
:1003D0009C4228D01F4B1B789C4227D01E4B1B7879
:1003E0009C4226D01D4B1B789C4202D0002201214A
:1003F00004E00122002101E00022012183B228460D
:1004000000F073F803B030BD00220121F6E70022AE
:100410000121F3E700220121F0E701220021EDE7AD
:1004200001220021EAE701220021E7E70122002161
:10043000E4E701220021E1E7F8070008F4070008DB
:10044000FC070008F0070008EC070008D8070008C0
:10045000DC070008E0070008E4070008E8070008D8
:10046000F0B583B0ADF80400032908D80C46154652
:10047000022A08D90198FFF783FF03B0F0BD019865
:10048000FFF77EFFF9E79DF8047007F00F00FFF714
:10049000F3FE06463809FFF7EBFE83B22A462146F3
:1004A000304600F022F8E8E7816170470904816175
:1004B0007047436901EA030221EA030141EA02416C
:1004C00081617047006980B2704710B50C46FFF734
:1004D000F9FF204010BD4161704741F48033C36192
:1004E000C161C361C369C3697047F0B50668C56877
:1004F0004FF0000C03E00CF1010C1FFA8CFCBCF176
:100500000F0F15D843FA0CF414F0010FF3D04FEA93
:100510004C0E032404FA0EF426EA040601FA0EF740
:100520003E4325EA040502FA0EFE4EEA0505E2E71F
:100530000660C560F0BD10B5012906D0416821EA0A
:10054000030141608468002105E04168194341606E
:10055000F8E7013189B20F2911D843FA01FC1CF0E8
:10056000010FF6D04FEA410C4FF0030E0EFA0CFECD
:1005700024EA0E0402FA0CFC4CEA0404E9E7846065
:1005800010BD30B5046A456A00230DE04FEA830EC2
:100590004FF00F0C0CFA0EFC24EA0C0401FA0EFECC
:1005A0004EEA040401339BB2072B05D842FA03FC40
:1005B0001CF0010FEAD1F5E708230FE0A3F1080CC6
:1005C0004FEA8C0C4FF00F0E0EFA0CFE25EA0E0EC1
:1005D00001FA0CFC4CEA0E0501339BB20F2B05D837
:1005E00042FA03FC1CF0010FE8D1F5E70462456212
:1005F00030BD03680B4303607047036823EA0103BF
:100600000360704703680B4303607047036823EA85
:10061000010303607047430903F1804303F50E3380
:100620001A6800F01F00012101FA00F01043186061
:100630007047430903F1804303F50E331A6800F055
:100640001F00012101FA00F022EA00001860704743
:10065000430903F1804303F50E33196800F01F00CE
:10066000012202FA00F0014319601A6822EA000030
:1006700018607047430903F1804303F50E331A688D
:1006800000F01F00012101FA00F0104318607047CC
:10069000430903F1804303F50E331A6800F01F008D
:1006A000012101FA00F022EA000018607047000002
:1006B000044AD2F8083823F4C00343EA4053C2F88E
:1006C0000838704700300240032802D0052808D0BF
:1006D0007047084AD2F8003843F48023C2F8003843
:1006E0007047044AD2F8703843F00403C2F87038F7
:1006F000704700BF00300240032802D0052808D010
:100700007047084AD2F8003823F48023C2F8003832
:100710007047044AD2F8703823F00403C2F87038E6
:10072000704700BF003002404FF0E022D2F8883D11
:1007300043F47003C2F8883D7047FEE7704700003D
:1007400010B51B4B1B4903E051F8042B43F8042B55
:10075000194A9342F8D302E0002243F8042B174AC7
:100760009342F9D34FF0E022D2F8143D43F40073E2
:10077000C2F8143DFFF7D8FF114C02E054F8043BD7
:100780009847104B9C42F9D30F4C02E054F8043BBD
:1007900098470E4B9C42F9D3FFF726FD0C4C02E024
:1007A00054F8043B98470B4B9C42F9D310BD00BF53
:1007B00000000020000800080000002000000020C9
:1007C00000080008000800080008000800080008E9
:1007D0000008000800080008B2010000F001000055
:1007E0009201000062010000820100000000000090
:1007F000F3000000C3000000D3000000E30000008D
:0400000508000741A7
:00000001FF
