:020000040800F2
:1000000000000220A9060008A7060008A5060008AF
:10001000A5060008A5060008A506000800000000C7
:10002000000000000000000000000000A70600081B
:10003000A706000800000000A7060008A7060008A1
:10004000A5060008A5060008A5060008A5060008E4
:10005000A5060008A506000825020008A506000858
:10006000A5060008A5060008A5060008A5060008C4
:10007000A5060008A5060008A5060008A5060008B4
:10008000A5060008A5060008A5060008A5060008A4
:10009000A5060008A5060008A5060008A506000894
:1000A000A5060008A5060008A5060008A506000884
:1000B000A5060008A5060008A5060008A506000874
:1000C000A5060008A5060008A5060008A506000864
:1000D000A5060008A5060008A5060008A506000854
:1000E000A5060008A5060008A5060008A506000844
:1000F000A5060008A5060008A5060008A506000834
:10010000A5060008A5060008A5060008A506000823
:10011000A5060008A5060008A5060008AD01000810
:10012000A5060008A5060008A5060008A506000803
:10013000A5060008A5060008A5060008A5060008F3
:10014000A5060008A5060008A5060008A5060008E3
:10015000A5060008A5060008A5060008A5060008D3
:10016000A5060008A5060008A5060008A5060008C3
:10017000A5060008A5060008A5060008A5060008B3
:10018000A5060008A5060008A5060008A5060008A3
:10019000A5060008A5060008A5060008A506000893
:1001A000A5060008A5060008A506000810B50B4C1A
:1001B000206880B90A4A1378527843EA022363F32D
:1001C0000F0000F0FFF80A232360BDE81040054847
:1001D000012100F056BA01382060F6E70000002047
:1001E000A60700080014004000B9704700BF01389E
:1001F000FAE707B5ADF80400C820ADF80010FFF726
:10020000F3FF019800F0EFF89DF8003010EA1313A7
:1002100005D0009803B05DF804EB00F0D3B803B04C
:100220005DF804FB10B5084A084B547811785878EB
:100230001A7841EA042142EA0020FFF7DAFFBDE81C
:100240001040012000F066B9A4070008A2070008CA
:1002500070B540F2036000F002FA414B1C785B7805
:1002600044EA0324204600F0CBF8204600F099F839
:1002700040F2026000F0F3F94FF4C06000F0EFF9D3
:10028000384B1D785B7845EA0325284600F0B8F81E
:10029000354B1E785B7846EA0326304600F0B0F80E
:1002A000324B1A78587842EA002000F0A9F8304B17
:1002B0001A78587842EA002000F0A2F82D4B1A78FC
:1002C000587842EA002000F09BF8304600F069F8C8
:1002D000284600F066F84FF4A06000F035FA0821D7
:1002E000062000F049FA40F68E0000F0B8F92249E5
:1002F000012000F015F90021012000F0D9F80120BB
:1003000000F0FAF8012000F005F9062000F026FAC6
:1003100040F6050000F0A3F90021184800F0BEF9EE
:10032000164800F0B1F915484FF6FF7100F0B8F922
:100330001248012100F0A1F91048012100F0A1F9B3
:100340000221372000F018FA372000F007FA0B4896
:1003500000F09FF962B6204600F012F8FEE700BFF9
:10036000A8070008A4070008A60700089C070008C3
:100370009A070008A207000800000240001400408D
:1003800082B0C0F30313ADF8040000F00F000121A8
:1003900000F580109940803089B2800202B000F0F0
:1003A0002FB982B0C0F30313ADF8040000F00F00C2
:1003B000012100F580109940803089B2800202B09E
:1003C00000F01CB982B0C0F30313ADF8040000F0D4
:1003D0000F00012100F580109940803089B2800221
:1003E00002B000F010B982B0ADF8040000F00F00C8
:1003F00000F580108030800202B000F00DB90000DE
:1004000017B4214BADF804001B78C0B2834234D03E
:100410001E4B1B78834230D01D4B1B7883422CD05F
:100420001C4B1B78834228D01B4B1B78834227D060
:100430001A4B1B78834223D0194B1B7883421FD061
:10044000184B1B7883421BD0174B1B78834217D065
:10045000164B1978091A18BF01210022040900F06F
:100460000F00012300F58010A34080309BB2800272
:1004700003B05DF8044B00F0D2B800220121EDE793
:1004800001220021EAE700BFA8070008A60700082C
:10049000AA070008A4070008980700089A070008A0
:1004A0009C0700089E070008A0070008A207000894
:1004B00001290FD0022918D059B90E4BD3F8082CB6
:1004C0000243C3F8082CD3F80C2C22EA0000C3F82E
:1004D0000C0C7047074BD3F8082C22EA0002C3F833
:1004E000082CD3F80C2C1043F1E7024BD3F8082C5E
:1004F0000243F4E700300140054BD3F8002C0243DF
:10050000C3F8002CD3F8042C1043C3F8040C704734
:1005100000300140014BC3F8140C7047003001401B
:100520002DE9F04F2B4FDFF8C0E0DFF8C080DFF897
:10053000C090DFF8C0A0DFF8C0B0844600220123DD
:1005400003FA02F010EA0C0F1DD02348814237D085
:1005500026D8A0F54060814234D019D8514503D047
:1005600059450CBF022300231C4800EB9204A40051
:1005700002F003052068AD000F26AE4020EA060019
:10058000AB40184320600132102AD8D1BDE8F08F6B
:10059000494519D0124B99420CBF05230023E3E7CC
:1005A000B94213D006D8714512D041450CBF08237B
:1005B0000023D9E70B4B99420CBF0A230023D3E752
:1005C0000623D1E70323CFE70423CDE70923CBE7B5
:1005D0000723C9E70024024000180240024E001021
:1005E0000014024000280240001C0240002002408B
:1005F0000010024000040240000802408161704780
:10060000090481617047436901EA030221EA030199
:1006100041EA024181617047006980B270472DE96B
:10062000F0410568C46800264FF0030E43FA06F750
:10063000FF070DD577000EFA07FC01FA07F825EA47
:100640000C0524EA0C0402FA07F748EA05053C43C6
:100650000136102EEAD10560C460BDE8F08143097F
:1006600003F1804303F50E3300F01F0019680122E7
:1006700002FA00F0084318607047C3681943C1606C
:100680007047C94301617047036843F0800303600A
:100690007047036843F0010303607047816270474D
:1006A000C1627047FEE7704738B51D4A1D4B1E49B1
:1006B0008B4220D31D4A0021934221D34FF0E023E7
:1006C0001B4CD3F8142D1B4D42F40072C3F8142DAB
:1006D000D3F8882D42F47002C3F8882DAC4212D3AF
:1006E000154C164DAC4212D3FFF7B2FD144C154D0C
:1006F000AC4210D338BD52F8040B43F8040BD7E7D3
:1007000043F8041BD8E754F8043B9847E6E754F84D
:10071000043B9847E6E754F8043B9847E8E700BFF6
:10072000AC070008000000200000002004000020AA
:10073000AC070008AC070008AC070008AC070008CD
:10074000AC070008AC07000840F0BF604FF0E023A2
:1007500040F40030C3F80C0D70470000054B42090F
:1007600003EB820300F01F00012202FA00F0186080
:10077000704700BF00E100E05A2893BF00F16040DD
:10078000044B00F00F0000F564408CBFC1540170B1
:10079000704700BF14ED00E0B201F0019201620168
:0C07A00082010000F300C300D300E3005E
:04000005080006A940
:00000001FF
